{
  "contractName": "HelloWorld",
  "abi": [
    {
      "constant": true,
      "inputs": [],
      "name": "hi",
      "outputs": [
        {
          "name": "",
          "type": "string"
        }
      ],
      "payable": false,
      "stateMutability": "pure",
      "type": "function"
    }
  ],
  "bytecode": "0x608060405234801561001057600080fd5b5061013f806100206000396000f300608060405260043610610041576000357c0100000000000000000000000000000000000000000000000000000000900463ffffffff168063a99dca3f14610046575b600080fd5b34801561005257600080fd5b5061005b6100d6565b6040518080602001828103825283818151815260200191508051906020019080838360005b8381101561009b578082015181840152602081019050610080565b50505050905090810190601f1680156100c85780820380516001836020036101000a031916815260200191505b509250505060405180910390f35b60606040805190810160405280600b81526020017f48656c6c6f20776f726c640000000000000000000000000000000000000000008152509050905600a165627a7a72305820e49acb2a0299cb74760c56e36f6cb7a1a07c36cd0ad548e101c910a2fb7f348d0029",
  "source": "pragma solidity ^0.4.18;\n\ncontract HelloWorld {\n\n    function hi() public pure returns (string) {\n\n        return (\"Hello world\");\n\n    }\n}",
  "sourcePath": "/Users/rpalacios/Documents/GitHub/uah-ethereum/Pec1/Ejercicio3/contracts/HelloWorld.sol",
  "compiler": {
    "name": "solc",
    "version": "0.4.24+commit.e67f0147.Emscripten.clang"
  },
  "schemaVersion": "2.0.1",
  "updatedAt": "2018-09-30T08:45:44.339Z"
}