{
  "contractName": "Tokens",
  "abi": [
    {
      "constant": true,
      "inputs": [],
      "name": "name",
      "outputs": [
        {
          "name": "",
          "type": "string"
        }
      ],
      "payable": false,
      "stateMutability": "view",
      "type": "function"
    },
    {
      "constant": true,
      "inputs": [],
      "name": "owner",
      "outputs": [
        {
          "name": "",
          "type": "address"
        }
      ],
      "payable": false,
      "stateMutability": "view",
      "type": "function"
    },
    {
      "constant": true,
      "inputs": [],
      "name": "symbol",
      "outputs": [
        {
          "name": "",
          "type": "string"
        }
      ],
      "payable": false,
      "stateMutability": "view",
      "type": "function"
    },
    {
      "constant": true,
      "inputs": [],
      "name": "price",
      "outputs": [
        {
          "name": "",
          "type": "uint256"
        }
      ],
      "payable": false,
      "stateMutability": "view",
      "type": "function"
    },
    {
      "constant": false,
      "inputs": [
        {
          "name": "newOwner",
          "type": "address"
        }
      ],
      "name": "transferOwnership",
      "outputs": [],
      "payable": false,
      "stateMutability": "nonpayable",
      "type": "function"
    },
    {
      "inputs": [
        {
          "name": "initialSupply",
          "type": "uint256"
        },
        {
          "name": "tokenName",
          "type": "string"
        },
        {
          "name": "tokenSymbol",
          "type": "string"
        }
      ],
      "payable": false,
      "stateMutability": "nonpayable",
      "type": "constructor"
    },
    {
      "payable": true,
      "stateMutability": "payable",
      "type": "fallback"
    },
    {
      "anonymous": false,
      "inputs": [
        {
          "indexed": true,
          "name": "from",
          "type": "address"
        },
        {
          "indexed": true,
          "name": "to",
          "type": "address"
        },
        {
          "indexed": false,
          "name": "value",
          "type": "uint256"
        }
      ],
      "name": "Transfer",
      "type": "event"
    },
    {
      "anonymous": false,
      "inputs": [
        {
          "indexed": true,
          "name": "from",
          "type": "address"
        },
        {
          "indexed": false,
          "name": "value",
          "type": "uint256"
        }
      ],
      "name": "Burn",
      "type": "event"
    },
    {
      "constant": false,
      "inputs": [
        {
          "name": "supply",
          "type": "uint256"
        },
        {
          "name": "tokenName",
          "type": "string"
        },
        {
          "name": "tokenSymbol",
          "type": "string"
        }
      ],
      "name": "setToken",
      "outputs": [],
      "payable": false,
      "stateMutability": "nonpayable",
      "type": "function"
    },
    {
      "constant": false,
      "inputs": [
        {
          "name": "_to",
          "type": "address"
        },
        {
          "name": "_value",
          "type": "uint256"
        }
      ],
      "name": "transfer",
      "outputs": [
        {
          "name": "success",
          "type": "bool"
        }
      ],
      "payable": false,
      "stateMutability": "nonpayable",
      "type": "function"
    },
    {
      "constant": false,
      "inputs": [
        {
          "name": "_value",
          "type": "uint256"
        }
      ],
      "name": "burn",
      "outputs": [
        {
          "name": "success",
          "type": "bool"
        }
      ],
      "payable": false,
      "stateMutability": "nonpayable",
      "type": "function"
    },
    {
      "constant": false,
      "inputs": [
        {
          "name": "mintedAmount",
          "type": "uint256"
        }
      ],
      "name": "mint",
      "outputs": [],
      "payable": false,
      "stateMutability": "nonpayable",
      "type": "function"
    },
    {
      "constant": false,
      "inputs": [],
      "name": "buy",
      "outputs": [],
      "payable": true,
      "stateMutability": "payable",
      "type": "function"
    },
    {
      "constant": true,
      "inputs": [],
      "name": "getName",
      "outputs": [
        {
          "name": "",
          "type": "string"
        }
      ],
      "payable": false,
      "stateMutability": "view",
      "type": "function"
    },
    {
      "constant": true,
      "inputs": [],
      "name": "getSymbol",
      "outputs": [
        {
          "name": "",
          "type": "string"
        }
      ],
      "payable": false,
      "stateMutability": "view",
      "type": "function"
    },
    {
      "constant": true,
      "inputs": [],
      "name": "totalSupply",
      "outputs": [
        {
          "name": "",
          "type": "uint256"
        }
      ],
      "payable": false,
      "stateMutability": "view",
      "type": "function"
    },
    {
      "constant": true,
      "inputs": [
        {
          "name": "_owner",
          "type": "address"
        }
      ],
      "name": "balanceOf",
      "outputs": [
        {
          "name": "balance",
          "type": "uint256"
        }
      ],
      "payable": false,
      "stateMutability": "view",
      "type": "function"
    },
    {
      "constant": true,
      "inputs": [],
      "name": "isOwner",
      "outputs": [
        {
          "name": "",
          "type": "bool"
        }
      ],
      "payable": false,
      "stateMutability": "view",
      "type": "function"
    },
    {
      "constant": true,
      "inputs": [],
      "name": "getBalance",
      "outputs": [
        {
          "name": "",
          "type": "uint256"
        }
      ],
      "payable": false,
      "stateMutability": "view",
      "type": "function"
    },
    {
      "constant": true,
      "inputs": [],
      "name": "getPrice",
      "outputs": [
        {
          "name": "",
          "type": "uint256"
        }
      ],
      "payable": false,
      "stateMutability": "view",
      "type": "function"
    },
    {
      "constant": false,
      "inputs": [
        {
          "name": "myid",
          "type": "bytes32"
        },
        {
          "name": "result",
          "type": "string"
        },
        {
          "name": "proof",
          "type": "bytes"
        }
      ],
      "name": "__callback",
      "outputs": [],
      "payable": false,
      "stateMutability": "nonpayable",
      "type": "function"
    },
    {
      "constant": false,
      "inputs": [
        {
          "name": "_myid",
          "type": "bytes32"
        },
        {
          "name": "_result",
          "type": "string"
        }
      ],
      "name": "__callback",
      "outputs": [],
      "payable": false,
      "stateMutability": "nonpayable",
      "type": "function"
    },
    {
      "constant": false,
      "inputs": [],
      "name": "update",
      "outputs": [],
      "payable": true,
      "stateMutability": "payable",
      "type": "function"
    }
  ],
  "bytecode": "0x60806040523480156200001157600080fd5b506040516200359738038062003597833981018060405281019080805190602001909291908051820192919060200180518201929190505050336000806101000a81548173ffffffffffffffffffffffffffffffffffffffff021916908373ffffffffffffffffffffffffffffffffffffffff160217905550736f485c8bf6fc43ea212e93bbf8ce046c7f1cb475600160006101000a81548173ffffffffffffffffffffffffffffffffffffffff021916908373ffffffffffffffffffffffffffffffffffffffff16021790555033600760006101000a81548173ffffffffffffffffffffffffffffffffffffffff021916908373ffffffffffffffffffffffffffffffffffffffff16021790555082600b81905550600b5460066000600760009054906101000a900473ffffffffffffffffffffffffffffffffffffffff1673ffffffffffffffffffffffffffffffffffffffff1673ffffffffffffffffffffffffffffffffffffffff168152602001908152602001600020819055508160099080519060200190620001a792919062000ebc565b5080600a9080519060200190620001c092919062000ebc565b506064600881905550620001e26200025d640100000000026401000000009004565b600760009054906101000a900473ffffffffffffffffffffffffffffffffffffffff1673ffffffffffffffffffffffffffffffffffffffff1660007fddf252ad1be2c89b69c2b068fc378daa952ba7f163c4a11628f55a4df523b3ef856040518082815260200191505060405180910390a350505062000f6b565b6200032f6040805190810160405280600381526020017f55524c0000000000000000000000000000000000000000000000000000000000815250608060405190810160405280604981526020017f6a736f6e2868747470733a2f2f6d696e2d6170692e63727970746f636f6d706181526020017f72652e636f6d2f646174612f70726963653f6673796d3d455448267473796d7381526020017f3d455552292e455552000000000000000000000000000000000000000000000081525062000332640100000000026401000000009004565b50565b6000806000600160009054906101000a900473ffffffffffffffffffffffffffffffffffffffff1673ffffffffffffffffffffffffffffffffffffffff161480620003b857506000620003b6600160009054906101000a900473ffffffffffffffffffffffffffffffffffffffff1662000914640100000000026401000000009004565b145b15620003db57620003d960006200091f640100000000026401000000009004565b505b600160009054906101000a900473ffffffffffffffffffffffffffffffffffffffff1673ffffffffffffffffffffffffffffffffffffffff166338cc48316040518163ffffffff167c0100000000000000000000000000000000000000000000000000000000028152600401602060405180830381600087803b1580156200046257600080fd5b505af115801562000477573d6000803e3d6000fd5b505050506040513d60208110156200048e57600080fd5b810190808051906020019092919050505073ffffffffffffffffffffffffffffffffffffffff16600260009054906101000a900473ffffffffffffffffffffffffffffffffffffffff1673ffffffffffffffffffffffffffffffffffffffff16141515620005fb57600160009054906101000a900473ffffffffffffffffffffffffffffffffffffffff1673ffffffffffffffffffffffffffffffffffffffff166338cc48316040518163ffffffff167c0100000000000000000000000000000000000000000000000000000000028152600401602060405180830381600087803b1580156200057d57600080fd5b505af115801562000592573d6000803e3d6000fd5b505050506040513d6020811015620005a957600080fd5b8101908080519060200190929190505050600260006101000a81548173ffffffffffffffffffffffffffffffffffffffff021916908373ffffffffffffffffffffffffffffffffffffffff1602179055505b600260009054906101000a900473ffffffffffffffffffffffffffffffffffffffff1673ffffffffffffffffffffffffffffffffffffffff1663524f3889856040518263ffffffff167c01000000000000000000000000000000000000000000000000000000000281526004018080602001828103825283818151815260200191508051906020019080838360005b83811015620006a75780820151818401526020810190506200068a565b50505050905090810190601f168015620006d55780820380516001836020036101000a031916815260200191505b5092505050602060405180830381600087803b158015620006f557600080fd5b505af11580156200070a573d6000803e3d6000fd5b505050506040513d60208110156200072157600080fd5b8101908080519060200190929190505050905062030d403a02670de0b6b3a7640000018111156200075957600060010291506200090d565b600260009054906101000a900473ffffffffffffffffffffffffffffffffffffffff1673ffffffffffffffffffffffffffffffffffffffff1663adf59f9982600087876040518563ffffffff167c0100000000000000000000000000000000000000000000000000000000028152600401808481526020018060200180602001838103835285818151815260200191508051906020019080838360005b8381101562000813578082015181840152602081019050620007f6565b50505050905090810190601f168015620008415780820380516001836020036101000a031916815260200191505b50838103825284818151815260200191508051906020019080838360005b838110156200087c5780820151818401526020810190506200085f565b50505050905090810190601f168015620008aa5780820380516001836020036101000a031916815260200191505b50955050505050506020604051808303818588803b158015620008cc57600080fd5b505af1158015620008e1573d6000803e3d6000fd5b50505050506040513d6020811015620008f957600080fd5b810190808051906020019092919050505091505b5092915050565b6000813b9050919050565b60006200093a62000941640100000000026401000000009004565b9050919050565b60008062000972731d3b2638a7cc9f2cb3d298a3da7a90b67e5506ed62000914640100000000026401000000009004565b111562000a2757731d3b2638a7cc9f2cb3d298a3da7a90b67e5506ed600160006101000a81548173ffffffffffffffffffffffffffffffffffffffff021916908373ffffffffffffffffffffffffffffffffffffffff16021790555062000a1d6040805190810160405280600b81526020017f6574685f6d61696e6e657400000000000000000000000000000000000000000081525062000ea0640100000000026401000000009004565b6001905062000e9d565b600062000a5773c03a2615d5efaf5f49f60b7bb6583eaec212fdf162000914640100000000026401000000009004565b111562000b0c5773c03a2615d5efaf5f49f60b7bb6583eaec212fdf1600160006101000a81548173ffffffffffffffffffffffffffffffffffffffff021916908373ffffffffffffffffffffffffffffffffffffffff16021790555062000b026040805190810160405280600c81526020017f6574685f726f707374656e33000000000000000000000000000000000000000081525062000ea0640100000000026401000000009004565b6001905062000e9d565b600062000b3c73b7a07bcf2ba2f2703b24c0691b5278999c59ac7e62000914640100000000026401000000009004565b111562000bf15773b7a07bcf2ba2f2703b24c0691b5278999c59ac7e600160006101000a81548173ffffffffffffffffffffffffffffffffffffffff021916908373ffffffffffffffffffffffffffffffffffffffff16021790555062000be76040805190810160405280600981526020017f6574685f6b6f76616e000000000000000000000000000000000000000000000081525062000ea0640100000000026401000000009004565b6001905062000e9d565b600062000c2173146500cfd35b22e4a392fe0adc06de1a1368ed4862000914640100000000026401000000009004565b111562000cd65773146500cfd35b22e4a392fe0adc06de1a1368ed48600160006101000a81548173ffffffffffffffffffffffffffffffffffffffff021916908373ffffffffffffffffffffffffffffffffffffffff16021790555062000ccc6040805190810160405280600b81526020017f6574685f72696e6b65627900000000000000000000000000000000000000000081525062000ea0640100000000026401000000009004565b6001905062000e9d565b600062000d06736f485c8bf6fc43ea212e93bbf8ce046c7f1cb47562000914640100000000026401000000009004565b111562000d6c57736f485c8bf6fc43ea212e93bbf8ce046c7f1cb475600160006101000a81548173ffffffffffffffffffffffffffffffffffffffff021916908373ffffffffffffffffffffffffffffffffffffffff1602179055506001905062000e9d565b600062000d9c7320e12a1f859b3feae5fb2a0a32c18f5a65555bbf62000914640100000000026401000000009004565b111562000e02577320e12a1f859b3feae5fb2a0a32c18f5a65555bbf600160006101000a81548173ffffffffffffffffffffffffffffffffffffffff021916908373ffffffffffffffffffffffffffffffffffffffff1602179055506001905062000e9d565b600062000e327351efaf4c8b3c9afbd5ab9f4bbc82784ab6ef8faa62000914640100000000026401000000009004565b111562000e98577351efaf4c8b3c9afbd5ab9f4bbc82784ab6ef8faa600160006101000a81548173ffffffffffffffffffffffffffffffffffffffff021916908373ffffffffffffffffffffffffffffffffffffffff1602179055506001905062000e9d565b600090505b90565b806003908051906020019062000eb892919062000ebc565b5050565b828054600181600116156101000203166002900490600052602060002090601f016020900481019282601f1062000eff57805160ff191683800117855562000f30565b8280016001018555821562000f30579182015b8281111562000f2f57825182559160200191906001019062000f12565b5b50905062000f3f919062000f43565b5090565b62000f6891905b8082111562000f6457600081600090555060010162000f4a565b5090565b90565b61261c8062000f7b6000396000f300608060405260043610610112576000357c0100000000000000000000000000000000000000000000000000000000900463ffffffff16806306fdde031461013157806312065fe0146101c157806315070401146101ec57806317d7de7c1461027c57806318160ddd1461030c57806327dc297e1461033757806338bbfa50146103ae57806342966c681461046b57806354e80a0f146104b057806370a08231146105695780638da5cb5b146105c05780638f32d59b1461061757806395d89b411461064657806398d5fdca146106d6578063a035b1fe14610701578063a0712d681461072c578063a2e6204514610759578063a6f2ae3a14610763578063a9059cbb1461076d578063f2fde38b146107d2575b61012f33670de0b6b3a76400003481151561012957fe5b04610815565b005b34801561013d57600080fd5b50610146610913565b6040518080602001828103825283818151815260200191508051906020019080838360005b8381101561018657808201518184015260208101905061016b565b50505050905090810190601f1680156101b35780820380516001836020036101000a031916815260200191505b509250505060405180910390f35b3480156101cd57600080fd5b506101d66109b1565b6040518082815260200191505060405180910390f35b3480156101f857600080fd5b506102016109e3565b6040518080602001828103825283818151815260200191508051906020019080838360005b83811015610241578082015181840152602081019050610226565b50505050905090810190601f16801561026e5780820380516001836020036101000a031916815260200191505b509250505060405180910390f35b34801561028857600080fd5b50610291610a85565b6040518080602001828103825283818151815260200191508051906020019080838360005b838110156102d15780820151818401526020810190506102b6565b50505050905090810190601f1680156102fe5780820380516001836020036101000a031916815260200191505b509250505060405180910390f35b34801561031857600080fd5b50610321610b27565b6040518082815260200191505060405180910390f35b34801561034357600080fd5b506103ac6004803603810190808035600019169060200190929190803590602001908201803590602001908080601f0160208091040260200160405190810160405280939291908181526020018383808284378201915050505050509192919290505050610b31565b005b3480156103ba57600080fd5b506104696004803603810190808035600019169060200190929190803590602001908201803590602001908080601f0160208091040260200160405190810160405280939291908181526020018383808284378201915050505050509192919290803590602001908201803590602001908080601f0160208091040260200160405190810160405280939291908181526020018383808284378201915050505050509192919290505050610b96565b005b34801561047757600080fd5b5061049660048036038101908080359060200190929190505050610b9b565b604051808215151515815260200191505060405180910390f35b3480156104bc57600080fd5b5061056760048036038101908080359060200190929190803590602001908201803590602001908080601f0160208091040260200160405190810160405280939291908181526020018383808284378201915050505050509192919290803590602001908201803590602001908080601f0160208091040260200160405190810160405280939291908181526020018383808284378201915050505050509192919290505050610c9f565b005b34801561057557600080fd5b506105aa600480360381019080803573ffffffffffffffffffffffffffffffffffffffff169060200190929190505050610e0d565b6040518082815260200191505060405180910390f35b3480156105cc57600080fd5b506105d5610e56565b604051808273ffffffffffffffffffffffffffffffffffffffff1673ffffffffffffffffffffffffffffffffffffffff16815260200191505060405180910390f35b34801561062357600080fd5b5061062c610e7b565b604051808215151515815260200191505060405180910390f35b34801561065257600080fd5b5061065b610ed3565b6040518080602001828103825283818151815260200191508051906020019080838360005b8381101561069b578082015181840152602081019050610680565b50505050905090810190601f1680156106c85780820380516001836020036101000a031916815260200191505b509250505060405180910390f35b3480156106e257600080fd5b506106eb610f71565b6040518082815260200191505060405180910390f35b34801561070d57600080fd5b50610716610f7b565b6040518082815260200191505060405180910390f35b34801561073857600080fd5b5061075760048036038101908080359060200190929190505050610f81565b005b6107616110d0565b005b61076b611194565b005b34801561077957600080fd5b506107b8600480360381019080803573ffffffffffffffffffffffffffffffffffffffff169060200190929190803590602001909291905050506111b3565b604051808215151515815260200191505060405180910390f35b3480156107de57600080fd5b50610813600480360381019080803573ffffffffffffffffffffffffffffffffffffffff1690602001909291905050506111ca565b005b60006001821015151561082757600080fd5b61082f6110d0565b73__ConvertLib____________________________6396e4ee3d836008546040518363ffffffff167c0100000000000000000000000000000000000000000000000000000000028152600401808381526020018281526020019250505060206040518083038186803b1580156108a457600080fd5b505af41580156108b8573d6000803e3d6000fd5b505050506040513d60208110156108ce57600080fd5b8101908080519060200190929190505050905061090e600760009054906101000a900473ffffffffffffffffffffffffffffffffffffffff168483611268565b505050565b60098054600181600116156101000203166002900480601f0160208091040260200160405190810160405280929190818152602001828054600181600116156101000203166002900480156109a95780601f1061097e576101008083540402835291602001916109a9565b820191906000526020600020905b81548152906001019060200180831161098c57829003601f168201915b505050505081565b6000670de0b6b3a76400003073ffffffffffffffffffffffffffffffffffffffff16318115156109dd57fe5b04905090565b6060600a8054600181600116156101000203166002900480601f016020809104026020016040519081016040528092919081815260200182805460018160011615610100020316600290048015610a7b5780601f10610a5057610100808354040283529160200191610a7b565b820191906000526020600020905b815481529060010190602001808311610a5e57829003601f168201915b5050505050905090565b606060098054600181600116156101000203166002900480601f016020809104026020016040519081016040528092919081815260200182805460018160011615610100020316600290048015610b1d5780601f10610af257610100808354040283529160200191610b1d565b820191906000526020600020905b815481529060010190602001808311610b0057829003601f168201915b5050505050905090565b6000600b54905090565b6060610b3b61146f565b73ffffffffffffffffffffffffffffffffffffffff163373ffffffffffffffffffffffffffffffffffffffff16141515610b7457600080fd5b819050600081511115610b9157610b8a826117d1565b6008819055505b505050565b505050565b600081600660003373ffffffffffffffffffffffffffffffffffffffff1673ffffffffffffffffffffffffffffffffffffffff1681526020019081526020016000205410151515610beb57600080fd5b81600660003373ffffffffffffffffffffffffffffffffffffffff1673ffffffffffffffffffffffffffffffffffffffff1681526020019081526020016000206000828254039250508190555081600b600082825403925050819055503373ffffffffffffffffffffffffffffffffffffffff167fcc16f5dbb4873280815c1ee09dbd06736cffcc184412cf7a71a0fdb75d397ca5836040518082815260200191505060405180910390a260019050919050565b6000809054906101000a900473ffffffffffffffffffffffffffffffffffffffff1673ffffffffffffffffffffffffffffffffffffffff163373ffffffffffffffffffffffffffffffffffffffff16141515610cfa57600080fd5b60066000600760009054906101000a900473ffffffffffffffffffffffffffffffffffffffff1673ffffffffffffffffffffffffffffffffffffffff1673ffffffffffffffffffffffffffffffffffffffff16815260200190815260200160002054600b54141515610d6b57600080fd5b82600b81905550600b5460066000600760009054906101000a900473ffffffffffffffffffffffffffffffffffffffff1673ffffffffffffffffffffffffffffffffffffffff1673ffffffffffffffffffffffffffffffffffffffff168152602001908152602001600020819055508160099080519060200190610df092919061254b565b5080600a9080519060200190610e0792919061254b565b50505050565b6000600660008373ffffffffffffffffffffffffffffffffffffffff1673ffffffffffffffffffffffffffffffffffffffff168152602001908152602001600020549050919050565b6000809054906101000a900473ffffffffffffffffffffffffffffffffffffffff1681565b6000600760009054906101000a900473ffffffffffffffffffffffffffffffffffffffff1673ffffffffffffffffffffffffffffffffffffffff163373ffffffffffffffffffffffffffffffffffffffff1614905090565b600a8054600181600116156101000203166002900480601f016020809104026020016040519081016040528092919081815260200182805460018160011615610100020316600290048015610f695780601f10610f3e57610100808354040283529160200191610f69565b820191906000526020600020905b815481529060010190602001808311610f4c57829003601f168201915b505050505081565b6000600854905090565b60085481565b6000809054906101000a900473ffffffffffffffffffffffffffffffffffffffff1673ffffffffffffffffffffffffffffffffffffffff163373ffffffffffffffffffffffffffffffffffffffff16141515610fdc57600080fd5b8060066000600760009054906101000a900473ffffffffffffffffffffffffffffffffffffffff1673ffffffffffffffffffffffffffffffffffffffff1673ffffffffffffffffffffffffffffffffffffffff1681526020019081526020016000206000828254019250508190555080600b60008282540192505081905550600760009054906101000a900473ffffffffffffffffffffffffffffffffffffffff1673ffffffffffffffffffffffffffffffffffffffff1660007fddf252ad1be2c89b69c2b068fc378daa952ba7f163c4a11628f55a4df523b3ef836040518082815260200191505060405180910390a350565b6111916040805190810160405280600381526020017f55524c0000000000000000000000000000000000000000000000000000000000815250608060405190810160405280604981526020017f6a736f6e2868747470733a2f2f6d696e2d6170692e63727970746f636f6d706181526020017f72652e636f6d2f646174612f70726963653f6673796d3d455448267473796d7381526020017f3d455552292e45555200000000000000000000000000000000000000000000008152506117e5565b50565b6111b133670de0b6b3a7640000348115156111ab57fe5b04610815565b565b60006111c0338484611268565b6001905092915050565b6000809054906101000a900473ffffffffffffffffffffffffffffffffffffffff1673ffffffffffffffffffffffffffffffffffffffff163373ffffffffffffffffffffffffffffffffffffffff1614151561122557600080fd5b806000806101000a81548173ffffffffffffffffffffffffffffffffffffffff021916908373ffffffffffffffffffffffffffffffffffffffff16021790555050565b60008273ffffffffffffffffffffffffffffffffffffffff161415151561128e57600080fd5b80600660008573ffffffffffffffffffffffffffffffffffffffff1673ffffffffffffffffffffffffffffffffffffffff16815260200190815260200160002054101515156112dc57600080fd5b600660008373ffffffffffffffffffffffffffffffffffffffff1673ffffffffffffffffffffffffffffffffffffffff1681526020019081526020016000205481600660008573ffffffffffffffffffffffffffffffffffffffff1673ffffffffffffffffffffffffffffffffffffffff16815260200190815260200160002054011015151561136b57600080fd5b80600660008573ffffffffffffffffffffffffffffffffffffffff1673ffffffffffffffffffffffffffffffffffffffff1681526020019081526020016000206000828254039250508190555080600660008473ffffffffffffffffffffffffffffffffffffffff1673ffffffffffffffffffffffffffffffffffffffff168152602001908152602001600020600082825401925050819055508173ffffffffffffffffffffffffffffffffffffffff163373ffffffffffffffffffffffffffffffffffffffff167fddf252ad1be2c89b69c2b068fc378daa952ba7f163c4a11628f55a4df523b3ef836040518082815260200191505060405180910390a3505050565b600080600160009054906101000a900473ffffffffffffffffffffffffffffffffffffffff1673ffffffffffffffffffffffffffffffffffffffff1614806114e1575060006114df600160009054906101000a900473ffffffffffffffffffffffffffffffffffffffff16611d8b565b145b156114f2576114f06000611d96565b505b600160009054906101000a900473ffffffffffffffffffffffffffffffffffffffff1673ffffffffffffffffffffffffffffffffffffffff166338cc48316040518163ffffffff167c0100000000000000000000000000000000000000000000000000000000028152600401602060405180830381600087803b15801561157857600080fd5b505af115801561158c573d6000803e3d6000fd5b505050506040513d60208110156115a257600080fd5b810190808051906020019092919050505073ffffffffffffffffffffffffffffffffffffffff16600260009054906101000a900473ffffffffffffffffffffffffffffffffffffffff1673ffffffffffffffffffffffffffffffffffffffff1614151561170b57600160009054906101000a900473ffffffffffffffffffffffffffffffffffffffff1673ffffffffffffffffffffffffffffffffffffffff166338cc48316040518163ffffffff167c0100000000000000000000000000000000000000000000000000000000028152600401602060405180830381600087803b15801561168f57600080fd5b505af11580156116a3573d6000803e3d6000fd5b505050506040513d60208110156116b957600080fd5b8101908080519060200190929190505050600260006101000a81548173ffffffffffffffffffffffffffffffffffffffff021916908373ffffffffffffffffffffffffffffffffffffffff1602179055505b600260009054906101000a900473ffffffffffffffffffffffffffffffffffffffff1673ffffffffffffffffffffffffffffffffffffffff1663c281d19e6040518163ffffffff167c0100000000000000000000000000000000000000000000000000000000028152600401602060405180830381600087803b15801561179157600080fd5b505af11580156117a5573d6000803e3d6000fd5b505050506040513d60208110156117bb57600080fd5b8101908080519060200190929190505050905090565b60006117de826000611da7565b9050919050565b6000806000600160009054906101000a900473ffffffffffffffffffffffffffffffffffffffff1673ffffffffffffffffffffffffffffffffffffffff16148061185957506000611857600160009054906101000a900473ffffffffffffffffffffffffffffffffffffffff16611d8b565b145b1561186a576118686000611d96565b505b600160009054906101000a900473ffffffffffffffffffffffffffffffffffffffff1673ffffffffffffffffffffffffffffffffffffffff166338cc48316040518163ffffffff167c0100000000000000000000000000000000000000000000000000000000028152600401602060405180830381600087803b1580156118f057600080fd5b505af1158015611904573d6000803e3d6000fd5b505050506040513d602081101561191a57600080fd5b810190808051906020019092919050505073ffffffffffffffffffffffffffffffffffffffff16600260009054906101000a900473ffffffffffffffffffffffffffffffffffffffff1673ffffffffffffffffffffffffffffffffffffffff16141515611a8357600160009054906101000a900473ffffffffffffffffffffffffffffffffffffffff1673ffffffffffffffffffffffffffffffffffffffff166338cc48316040518163ffffffff167c0100000000000000000000000000000000000000000000000000000000028152600401602060405180830381600087803b158015611a0757600080fd5b505af1158015611a1b573d6000803e3d6000fd5b505050506040513d6020811015611a3157600080fd5b8101908080519060200190929190505050600260006101000a81548173ffffffffffffffffffffffffffffffffffffffff021916908373ffffffffffffffffffffffffffffffffffffffff1602179055505b600260009054906101000a900473ffffffffffffffffffffffffffffffffffffffff1673ffffffffffffffffffffffffffffffffffffffff1663524f3889856040518263ffffffff167c01000000000000000000000000000000000000000000000000000000000281526004018080602001828103825283818151815260200191508051906020019080838360005b83811015611b2d578082015181840152602081019050611b12565b50505050905090810190601f168015611b5a5780820380516001836020036101000a031916815260200191505b5092505050602060405180830381600087803b158015611b7957600080fd5b505af1158015611b8d573d6000803e3d6000fd5b505050506040513d6020811015611ba357600080fd5b8101908080519060200190929190505050905062030d403a02670de0b6b3a764000001811115611bd95760006001029150611d84565b600260009054906101000a900473ffffffffffffffffffffffffffffffffffffffff1673ffffffffffffffffffffffffffffffffffffffff1663adf59f9982600087876040518563ffffffff167c0100000000000000000000000000000000000000000000000000000000028152600401808481526020018060200180602001838103835285818151815260200191508051906020019080838360005b83811015611c91578082015181840152602081019050611c76565b50505050905090810190601f168015611cbe5780820380516001836020036101000a031916815260200191505b50838103825284818151815260200191508051906020019080838360005b83811015611cf7578082015181840152602081019050611cdc565b50505050905090810190601f168015611d245780820380516001836020036101000a031916815260200191505b50955050505050506020604051808303818588803b158015611d4557600080fd5b505af1158015611d59573d6000803e3d6000fd5b50505050506040513d6020811015611d7057600080fd5b810190808051906020019092919050505091505b5092915050565b6000813b9050919050565b6000611da061209b565b9050919050565b6000606060008060008693506000925060009150600090505b835181101561207c5760307f0100000000000000000000000000000000000000000000000000000000000000028482815181101515611dfb57fe5b9060200101517f010000000000000000000000000000000000000000000000000000000000000090047f0100000000000000000000000000000000000000000000000000000000000000027effffffffffffffffffffffffffffffffffffffffffffffffffffffffffffff191610158015611f13575060397f0100000000000000000000000000000000000000000000000000000000000000028482815181101515611ea357fe5b9060200101517f010000000000000000000000000000000000000000000000000000000000000090047f0100000000000000000000000000000000000000000000000000000000000000027effffffffffffffffffffffffffffffffffffffffffffffffffffffffffffff191611155b15611fc4578115611f36576000861415611f2c5761207c565b8580600190039650505b600a8302925060308482815181101515611f4c57fe5b9060200101517f010000000000000000000000000000000000000000000000000000000000000090047f0100000000000000000000000000000000000000000000000000000000000000027f01000000000000000000000000000000000000000000000000000000000000009004038301925061206f565b602e7f0100000000000000000000000000000000000000000000000000000000000000028482815181101515611ff657fe5b9060200101517f010000000000000000000000000000000000000000000000000000000000000090047f0100000000000000000000000000000000000000000000000000000000000000027effffffffffffffffffffffffffffffffffffffffffffffffffffffffffffff1916141561206e57600191505b5b8080600101915050611dc0565b600086111561208e5785600a0a830292505b8294505050505092915050565b6000806120bb731d3b2638a7cc9f2cb3d298a3da7a90b67e5506ed611d8b565b111561215d57731d3b2638a7cc9f2cb3d298a3da7a90b67e5506ed600160006101000a81548173ffffffffffffffffffffffffffffffffffffffff021916908373ffffffffffffffffffffffffffffffffffffffff1602179055506121546040805190810160405280600b81526020017f6574685f6d61696e6e6574000000000000000000000000000000000000000000815250612531565b6001905061252e565b600061217c73c03a2615d5efaf5f49f60b7bb6583eaec212fdf1611d8b565b111561221e5773c03a2615d5efaf5f49f60b7bb6583eaec212fdf1600160006101000a81548173ffffffffffffffffffffffffffffffffffffffff021916908373ffffffffffffffffffffffffffffffffffffffff1602179055506122156040805190810160405280600c81526020017f6574685f726f707374656e330000000000000000000000000000000000000000815250612531565b6001905061252e565b600061223d73b7a07bcf2ba2f2703b24c0691b5278999c59ac7e611d8b565b11156122df5773b7a07bcf2ba2f2703b24c0691b5278999c59ac7e600160006101000a81548173ffffffffffffffffffffffffffffffffffffffff021916908373ffffffffffffffffffffffffffffffffffffffff1602179055506122d66040805190810160405280600981526020017f6574685f6b6f76616e0000000000000000000000000000000000000000000000815250612531565b6001905061252e565b60006122fe73146500cfd35b22e4a392fe0adc06de1a1368ed48611d8b565b11156123a05773146500cfd35b22e4a392fe0adc06de1a1368ed48600160006101000a81548173ffffffffffffffffffffffffffffffffffffffff021916908373ffffffffffffffffffffffffffffffffffffffff1602179055506123976040805190810160405280600b81526020017f6574685f72696e6b656279000000000000000000000000000000000000000000815250612531565b6001905061252e565b60006123bf736f485c8bf6fc43ea212e93bbf8ce046c7f1cb475611d8b565b111561242357736f485c8bf6fc43ea212e93bbf8ce046c7f1cb475600160006101000a81548173ffffffffffffffffffffffffffffffffffffffff021916908373ffffffffffffffffffffffffffffffffffffffff1602179055506001905061252e565b60006124427320e12a1f859b3feae5fb2a0a32c18f5a65555bbf611d8b565b11156124a6577320e12a1f859b3feae5fb2a0a32c18f5a65555bbf600160006101000a81548173ffffffffffffffffffffffffffffffffffffffff021916908373ffffffffffffffffffffffffffffffffffffffff1602179055506001905061252e565b60006124c57351efaf4c8b3c9afbd5ab9f4bbc82784ab6ef8faa611d8b565b1115612529577351efaf4c8b3c9afbd5ab9f4bbc82784ab6ef8faa600160006101000a81548173ffffffffffffffffffffffffffffffffffffffff021916908373ffffffffffffffffffffffffffffffffffffffff1602179055506001905061252e565b600090505b90565b806003908051906020019061254792919061254b565b5050565b828054600181600116156101000203166002900490600052602060002090601f016020900481019282601f1061258c57805160ff19168380011785556125ba565b828001600101855582156125ba579182015b828111156125b957825182559160200191906001019061259e565b5b5090506125c791906125cb565b5090565b6125ed91905b808211156125e95760008160009055506001016125d1565b5090565b905600a165627a7a723058200060d65a3abf74ce365d2736eb2e08b381f10e3d3e3b1d0d0810c542de8cc5140029",
  "source": "pragma solidity ^0.4.16;\n\nimport \"./ConvertLib.sol\";\nimport \"./Owned.sol\";\nimport \"./usingOraclize.sol\";\n\ncontract Tokens is Owned, usingOraclize {\n    // This creates an array with all balances\n    mapping (address => uint256) public balanceOf;\n    \n    // The owner address\n    address owner;\n\n    // From oracle\n    uint constant conversionDefault = 100;\n    uint public price;\n\n    // Public variables of the token\n    string public name;\n    string public symbol;\n    uint256 public totalSupply;\n\n     // This generates a public event on the blockchain that will notify clients\n    event Transfer(address indexed from, address indexed to, uint256 value);\n\n    // This notifies clients about the amount burnt\n    event Burn(address indexed from, uint256 value);\n\n    /* Initializes contract with initial supply tokens to the creator of the contract */\n    constructor(uint256 initialSupply, string tokenName, string tokenSymbol) public {\n        OAR = OraclizeAddrResolverI(0x6f485C8BF6fc43eA212E93BBF8ce046C7f1cb475); // For testing only, remove in production\n        owner = msg.sender;\n        totalSupply = initialSupply;\n        balanceOf[owner] = totalSupply;\n        name = tokenName;\n        symbol = tokenSymbol;\n        price = conversionDefault;\n        update(); // Set price (ETH/EUR) from Oracle\n        emit Transfer(0x0, owner, initialSupply);\n    }\n\n     /**\n     * Set token\n     *\n     * @param supply total supply of tokens\n     * @param tokenName the name of the token\n     * @param tokenSymbol the symbol of the token\n     */\n    function setToken(uint256 supply, string tokenName, string tokenSymbol) public onlyOwner {\n        // Only it's possible if owner has got the total supply\n        require (totalSupply == balanceOf[owner]);\n        totalSupply = supply;\n        balanceOf[owner] = totalSupply;\n        name = tokenName;\n        symbol = tokenSymbol;\n    }\n\n    function _transfer(address _from, address _to, uint256 _value) internal {\n        // Prevent transfer to 0x0 address. Use burn() instead\n        require(_to != 0x0);\n        // Check if the sender has enough\n        require(balanceOf[_from] >= _value);\n        // Check for overflows\n        require(balanceOf[_to] + _value >= balanceOf[_to]);\n        // Subtract from the sender\n        balanceOf[_from] -= _value;\n        // Add the same to the recipient\n        balanceOf[_to] += _value;\n\n        emit Transfer(msg.sender, _to, _value);\n    }\n\n     /**\n     * \n     * Send `_value` tokens to `_to` from your account\n     *\n     * @param _to The address of the recipient\n     * @param _value the amount to send \n     */\n    function transfer(address _to, uint256 _value) public returns (bool success) {\n        _transfer(msg.sender, _to, _value);\n        return true;\n    }\n\n    /**\n     * Destory tokens\n     *\n     * Remove `_value` tokens from the system irreversibly\n     *\n     * @param _value the amount of money to burn\n     */\n    function burn(uint256 _value) public returns (bool success) {\n        require(balanceOf[msg.sender] >= _value); // Check if the sender has enough\n        balanceOf[msg.sender] -= _value;           // Subtract from the sender\n        totalSupply -= _value;                     // Updates totalSupply\n        emit Burn(msg.sender, _value);\n        return true;\n    }\n\n    /**\n    * Mint tokens for the owner only\n    * \n    * @param mintedAmount the amount of new tokens the owner will receive\n    */\n    function mint(uint256 mintedAmount) public onlyOwner {\n        balanceOf[owner] += mintedAmount;\n        totalSupply += mintedAmount;\n        emit Transfer(0x0, owner, mintedAmount);\n    }\n  \n    function _buy(address buyer, uint _amount) internal {\n        require(_amount >= 1); // Check if the value of the ether to transfer is at least one\n        update(); // Update price (ETH/EUR) from Oracle to ConversionRate\n        uint amount = ConvertLib.convert(_amount, price);\n        _transfer(owner, buyer, amount);\n    }\n\n    /**\n    * Buy tokens from contract by sending ether\n    */\n    function buy() public payable {\n        _buy(msg.sender, msg.value/1000000000000000000);\n    }\n\n    /**\n    * Anonymous function\n     */\n    function () public payable {\n        _buy(msg.sender, msg.value/1000000000000000000);\n    }\n\n    function getName() public view returns (string) {\n        return name;\n    }\n\n    function getSymbol() public view returns (string) {\n        return symbol;\n    }\n\n    function totalSupply() public view returns (uint256) {\n        return totalSupply;\n    }\n\n    function balanceOf(address _owner) public view returns (uint256 balance) {\n        return balanceOf[_owner];\n    }\n\n    function isOwner() public view returns (bool) {\n        return (msg.sender == owner);\n    }\n\n    function getBalance() public view returns (uint256) {\n        return address(this).balance/1000000000000000000;\n    }\n\n    function getPrice() public view returns (uint) {\n        return price;\n    }\n\n    /** \n    * Oraclize (update & __callback)\n    *\n    * Update price form min-api.crytocompare.com through Oraclize \n    */\n    function __callback(bytes32 _myid, string _result) public {\n        require (msg.sender == oraclize_cbAddress());\n        bytes memory tempEmptyStringTest = bytes(_result); // Uses memory\n        if (tempEmptyStringTest.length > 0) //Just updates the price if receives data from Oracle, otherwise keeps the last value\n            price = parseInt(_result);\n    }  \n\n    function update() public payable {\n        oraclize_query(\"URL\",\"json(https://min-api.cryptocompare.com/data/price?fsym=ETH&tsyms=EUR).EUR\");\n    }\n\n}",
  "sourcePath": "/Users/rpalacios/masteruah/merchant/contracts/Tokens.sol",
  "compiler": {
    "name": "solc",
    "version": "0.4.24+commit.e67f0147.Emscripten.clang"
  },
  "schemaVersion": "2.0.1",
  "updatedAt": "2018-12-07T16:50:30.923Z"
}